{
  "contractName": "SunriseNFT",
  "abi": [
    {
      "inputs": [],
      "stateMutability": "nonpayable",
      "type": "constructor"
    },
    {
      "anonymous": false,
      "inputs": [
        {
          "indexed": true,
          "internalType": "address",
          "name": "owner",
          "type": "address"
        },
        {
          "indexed": true,
          "internalType": "address",
          "name": "approved",
          "type": "address"
        },
        {
          "indexed": true,
          "internalType": "uint256",
          "name": "tokenId",
          "type": "uint256"
        }
      ],
      "name": "Approval",
      "type": "event"
    },
    {
      "anonymous": false,
      "inputs": [
        {
          "indexed": true,
          "internalType": "address",
          "name": "owner",
          "type": "address"
        },
        {
          "indexed": true,
          "internalType": "address",
          "name": "operator",
          "type": "address"
        },
        {
          "indexed": false,
          "internalType": "bool",
          "name": "approved",
          "type": "bool"
        }
      ],
      "name": "ApprovalForAll",
      "type": "event"
    },
    {
      "anonymous": false,
      "inputs": [
        {
          "indexed": true,
          "internalType": "address",
          "name": "to",
          "type": "address"
        },
        {
          "indexed": true,
          "internalType": "uint256",
          "name": "referrer",
          "type": "uint256"
        },
        {
          "indexed": false,
          "internalType": "uint256",
          "name": "qty",
          "type": "uint256"
        }
      ],
      "name": "Mint",
      "type": "event"
    },
    {
      "anonymous": false,
      "inputs": [
        {
          "indexed": true,
          "internalType": "address",
          "name": "previousOwner",
          "type": "address"
        },
        {
          "indexed": true,
          "internalType": "address",
          "name": "newOwner",
          "type": "address"
        }
      ],
      "name": "OwnershipTransferred",
      "type": "event"
    },
    {
      "anonymous": false,
      "inputs": [
        {
          "indexed": true,
          "internalType": "address",
          "name": "to",
          "type": "address"
        },
        {
          "indexed": true,
          "internalType": "uint256",
          "name": "tokenId",
          "type": "uint256"
        },
        {
          "indexed": false,
          "internalType": "uint256",
          "name": "weiAmount",
          "type": "uint256"
        }
      ],
      "name": "Redeem",
      "type": "event"
    },
    {
      "anonymous": false,
      "inputs": [
        {
          "indexed": true,
          "internalType": "address",
          "name": "from",
          "type": "address"
        },
        {
          "indexed": true,
          "internalType": "address",
          "name": "to",
          "type": "address"
        },
        {
          "indexed": true,
          "internalType": "uint256",
          "name": "tokenId",
          "type": "uint256"
        }
      ],
      "name": "Transfer",
      "type": "event"
    },
    {
      "inputs": [
        {
          "internalType": "address",
          "name": "to",
          "type": "address"
        },
        {
          "internalType": "uint256",
          "name": "tokenId",
          "type": "uint256"
        }
      ],
      "name": "approve",
      "outputs": [],
      "stateMutability": "nonpayable",
      "type": "function"
    },
    {
      "inputs": [
        {
          "internalType": "address",
          "name": "owner",
          "type": "address"
        }
      ],
      "name": "balanceOf",
      "outputs": [
        {
          "internalType": "uint256",
          "name": "",
          "type": "uint256"
        }
      ],
      "stateMutability": "view",
      "type": "function",
      "constant": true
    },
    {
      "inputs": [
        {
          "internalType": "uint256",
          "name": "tokenId",
          "type": "uint256"
        }
      ],
      "name": "getApproved",
      "outputs": [
        {
          "internalType": "address",
          "name": "",
          "type": "address"
        }
      ],
      "stateMutability": "view",
      "type": "function",
      "constant": true
    },
    {
      "inputs": [
        {
          "internalType": "address",
          "name": "owner",
          "type": "address"
        },
        {
          "internalType": "address",
          "name": "operator",
          "type": "address"
        }
      ],
      "name": "isApprovedForAll",
      "outputs": [
        {
          "internalType": "bool",
          "name": "",
          "type": "bool"
        }
      ],
      "stateMutability": "view",
      "type": "function",
      "constant": true
    },
    {
      "inputs": [],
      "name": "name",
      "outputs": [
        {
          "internalType": "string",
          "name": "",
          "type": "string"
        }
      ],
      "stateMutability": "view",
      "type": "function",
      "constant": true
    },
    {
      "inputs": [],
      "name": "owner",
      "outputs": [
        {
          "internalType": "address",
          "name": "",
          "type": "address"
        }
      ],
      "stateMutability": "view",
      "type": "function",
      "constant": true
    },
    {
      "inputs": [
        {
          "internalType": "uint256",
          "name": "tokenId",
          "type": "uint256"
        }
      ],
      "name": "ownerOf",
      "outputs": [
        {
          "internalType": "address",
          "name": "",
          "type": "address"
        }
      ],
      "stateMutability": "view",
      "type": "function",
      "constant": true
    },
    {
      "inputs": [],
      "name": "renounceOwnership",
      "outputs": [],
      "stateMutability": "nonpayable",
      "type": "function"
    },
    {
      "inputs": [
        {
          "internalType": "address",
          "name": "from",
          "type": "address"
        },
        {
          "internalType": "address",
          "name": "to",
          "type": "address"
        },
        {
          "internalType": "uint256",
          "name": "tokenId",
          "type": "uint256"
        }
      ],
      "name": "safeTransferFrom",
      "outputs": [],
      "stateMutability": "nonpayable",
      "type": "function"
    },
    {
      "inputs": [
        {
          "internalType": "address",
          "name": "from",
          "type": "address"
        },
        {
          "internalType": "address",
          "name": "to",
          "type": "address"
        },
        {
          "internalType": "uint256",
          "name": "tokenId",
          "type": "uint256"
        },
        {
          "internalType": "bytes",
          "name": "data",
          "type": "bytes"
        }
      ],
      "name": "safeTransferFrom",
      "outputs": [],
      "stateMutability": "nonpayable",
      "type": "function"
    },
    {
      "inputs": [
        {
          "internalType": "address",
          "name": "operator",
          "type": "address"
        },
        {
          "internalType": "bool",
          "name": "approved",
          "type": "bool"
        }
      ],
      "name": "setApprovalForAll",
      "outputs": [],
      "stateMutability": "nonpayable",
      "type": "function"
    },
    {
      "inputs": [],
      "name": "symbol",
      "outputs": [
        {
          "internalType": "string",
          "name": "",
          "type": "string"
        }
      ],
      "stateMutability": "view",
      "type": "function",
      "constant": true
    },
    {
      "inputs": [
        {
          "internalType": "uint256",
          "name": "index",
          "type": "uint256"
        }
      ],
      "name": "tokenByIndex",
      "outputs": [
        {
          "internalType": "uint256",
          "name": "",
          "type": "uint256"
        }
      ],
      "stateMutability": "view",
      "type": "function",
      "constant": true
    },
    {
      "inputs": [
        {
          "internalType": "address",
          "name": "owner",
          "type": "address"
        },
        {
          "internalType": "uint256",
          "name": "index",
          "type": "uint256"
        }
      ],
      "name": "tokenOfOwnerByIndex",
      "outputs": [
        {
          "internalType": "uint256",
          "name": "",
          "type": "uint256"
        }
      ],
      "stateMutability": "view",
      "type": "function",
      "constant": true
    },
    {
      "inputs": [
        {
          "internalType": "uint256",
          "name": "tokenId",
          "type": "uint256"
        }
      ],
      "name": "tokenURI",
      "outputs": [
        {
          "internalType": "string",
          "name": "",
          "type": "string"
        }
      ],
      "stateMutability": "view",
      "type": "function",
      "constant": true
    },
    {
      "inputs": [],
      "name": "totalSupply",
      "outputs": [
        {
          "internalType": "uint256",
          "name": "",
          "type": "uint256"
        }
      ],
      "stateMutability": "view",
      "type": "function",
      "constant": true
    },
    {
      "inputs": [
        {
          "internalType": "address",
          "name": "from",
          "type": "address"
        },
        {
          "internalType": "address",
          "name": "to",
          "type": "address"
        },
        {
          "internalType": "uint256",
          "name": "tokenId",
          "type": "uint256"
        }
      ],
      "name": "transferFrom",
      "outputs": [],
      "stateMutability": "nonpayable",
      "type": "function"
    },
    {
      "inputs": [
        {
          "internalType": "address",
          "name": "newOwner",
          "type": "address"
        }
      ],
      "name": "transferOwnership",
      "outputs": [],
      "stateMutability": "nonpayable",
      "type": "function"
    },
    {
      "inputs": [
        {
          "internalType": "bytes4",
          "name": "interfaceId",
          "type": "bytes4"
        }
      ],
      "name": "supportsInterface",
      "outputs": [
        {
          "internalType": "bool",
          "name": "",
          "type": "bool"
        }
      ],
      "stateMutability": "view",
      "type": "function",
      "constant": true
    },
    {
      "inputs": [
        {
          "internalType": "uint256",
          "name": "referralTokenId",
          "type": "uint256"
        },
        {
          "internalType": "uint8",
          "name": "qty",
          "type": "uint8"
        }
      ],
      "name": "safeMint",
      "outputs": [],
      "stateMutability": "payable",
      "type": "function",
      "payable": true
    },
    {
      "inputs": [
        {
          "internalType": "uint256",
          "name": "tokenId",
          "type": "uint256"
        }
      ],
      "name": "redeem",
      "outputs": [],
      "stateMutability": "nonpayable",
      "type": "function"
    },
    {
      "inputs": [
        {
          "internalType": "uint256[]",
          "name": "tokenIds",
          "type": "uint256[]"
        }
      ],
      "name": "redeemAll",
      "outputs": [],
      "stateMutability": "nonpayable",
      "type": "function"
    },
    {
      "inputs": [
        {
          "internalType": "string",
          "name": "uri",
          "type": "string"
        }
      ],
      "name": "setPrefixURI",
      "outputs": [],
      "stateMutability": "nonpayable",
      "type": "function"
    },
    {
      "inputs": [],
      "name": "prefixURI",
      "outputs": [
        {
          "internalType": "string",
          "name": "",
          "type": "string"
        }
      ],
      "stateMutability": "view",
      "type": "function",
      "constant": true
    },
    {
      "inputs": [
        {
          "internalType": "uint256",
          "name": "tokenId",
          "type": "uint256"
        }
      ],
      "name": "parentOfToken",
      "outputs": [
        {
          "internalType": "uint256",
          "name": "",
          "type": "uint256"
        }
      ],
      "stateMutability": "view",
      "type": "function",
      "constant": true
    },
    {
      "inputs": [
        {
          "internalType": "uint256",
          "name": "tokenId",
          "type": "uint256"
        }
      ],
      "name": "availableRewards",
      "outputs": [
        {
          "internalType": "uint256",
          "name": "",
          "type": "uint256"
        }
      ],
      "stateMutability": "view",
      "type": "function",
      "constant": true
    },
    {
      "inputs": [
        {
          "internalType": "uint256",
          "name": "tokenId",
          "type": "uint256"
        }
      ],
      "name": "totalRewards",
      "outputs": [
        {
          "internalType": "uint256",
          "name": "",
          "type": "uint256"
        }
      ],
      "stateMutability": "view",
      "type": "function",
      "constant": true
    },
    {
      "inputs": [
        {
          "internalType": "uint256",
          "name": "tokenId",
          "type": "uint256"
        }
      ],
      "name": "referralTree",
      "outputs": [
        {
          "internalType": "uint256[]",
          "name": "",
          "type": "uint256[]"
        }
      ],
      "stateMutability": "view",
      "type": "function",
      "constant": true
    },
    {
      "inputs": [
        {
          "internalType": "address",
          "name": "_address",
          "type": "address"
        }
      ],
      "name": "withdrawnByAddress",
      "outputs": [
        {
          "internalType": "uint256",
          "name": "",
          "type": "uint256"
        }
      ],
      "stateMutability": "view",
      "type": "function",
      "constant": true
    },
    {
      "inputs": [],
      "name": "totalWithdrawn",
      "outputs": [
        {
          "internalType": "uint256",
          "name": "",
          "type": "uint256"
        }
      ],
      "stateMutability": "view",
      "type": "function",
      "constant": true
    }
  ],
  "bytecode": "0x60806040523480156200001157600080fd5b506040518060400160405280600b81526020017f53756e72697365204e46540000000000000000000000000000000000000000008152506040518060400160405280600481526020017f534e46540000000000000000000000000000000000000000000000000000000081525081600090805190602001906200009692919062000f23565b508060019080519060200190620000af92919062000f23565b505050620000d2620000c66200013960201b60201c565b6200014160201b60201c565b6001600b81905550620000f1600c6200020760201b620013491760201c565b6040518060600160405280602581526020016200662060259139600d90805190602001906200012292919062000f23565b50620001336200021660201b60201c565b6200159d565b600033905090565b6000600a60009054906101000a900473ffffffffffffffffffffffffffffffffffffffff16905081600a60006101000a81548173ffffffffffffffffffffffffffffffffffffffff021916908373ffffffffffffffffffffffffffffffffffffffff1602179055508173ffffffffffffffffffffffffffffffffffffffff168173ffffffffffffffffffffffffffffffffffffffff167f8be0079c531659141344cd1fd0a4f28419497f9722a3daafe3b4186f6b6457e060405160405180910390a35050565b620186a0816000018190555050565b60006200022f600c6200028460201b620013581760201c565b905062000248600c6200029260201b620013661760201c565b620002696200025c6200013960201b60201c565b82620002a860201b60201c565b80600f60008381526020019081526020016000208190555050565b600081600001549050919050565b6001816000016000828254019250508190555050565b620002ca828260405180602001604052806000815250620002ce60201b60201c565b5050565b620002e083836200033c60201b60201c565b620002f560008484846200058360201b60201c565b62000337576040517f08c379a00000000000000000000000000000000000000000000000000000000081526004016200032e9062001190565b60405180910390fd5b505050565b600073ffffffffffffffffffffffffffffffffffffffff168273ffffffffffffffffffffffffffffffffffffffff161415620003af576040517f08c379a0000000000000000000000000000000000000000000000000000000008152600401620003a690620011f6565b60405180910390fd5b620003c0816200073d60201b60201c565b1562000403576040517f08c379a0000000000000000000000000000000000000000000000000000000008152600401620003fa90620011b2565b60405180910390fd5b620004196000838360016200078660201b60201c565b6200042a816200073d60201b60201c565b156200046d576040517f08c379a00000000000000000000000000000000000000000000000000000000081526004016200046490620011b2565b60405180910390fd5b6001600360008473ffffffffffffffffffffffffffffffffffffffff1673ffffffffffffffffffffffffffffffffffffffff16815260200190815260200160002060008282540192505081905550816002600083815260200190815260200160002060006101000a81548173ffffffffffffffffffffffffffffffffffffffff021916908373ffffffffffffffffffffffffffffffffffffffff160217905550808273ffffffffffffffffffffffffffffffffffffffff16600073ffffffffffffffffffffffffffffffffffffffff167fddf252ad1be2c89b69c2b068fc378daa952ba7f163c4a11628f55a4df523b3ef60405160405180910390a46200057f600083836001620007a560201b60201c565b5050565b6000620005b18473ffffffffffffffffffffffffffffffffffffffff16620007ab60201b6200137c1760201c565b1562000730578373ffffffffffffffffffffffffffffffffffffffff1663150b7a02620005e36200013960201b60201c565b8786866040518563ffffffff1660e01b81526004016200060794939291906200113c565b602060405180830381600087803b1580156200062257600080fd5b505af19250505080156200065657506040513d601f19601f8201168201806040525081019062000653919062000fea565b60015b620006df573d806000811462000689576040519150601f19603f3d011682016040523d82523d6000602084013e6200068e565b606091505b50600081511415620006d7576040517f08c379a0000000000000000000000000000000000000000000000000000000008152600401620006ce9062001190565b60405180910390fd5b805181602001fd5b63150b7a0260e01b7bffffffffffffffffffffffffffffffffffffffffffffffffffffffff1916817bffffffffffffffffffffffffffffffffffffffffffffffffffffffff19161491505062000735565b600190505b949350505050565b60008073ffffffffffffffffffffffffffffffffffffffff166200076783620007ce60201b60201c565b73ffffffffffffffffffffffffffffffffffffffff1614159050919050565b6200079f848484846200080b60201b6200139f1760201c565b50505050565b50505050565b6000808273ffffffffffffffffffffffffffffffffffffffff163b119050919050565b60006002600083815260200190815260200160002060009054906101000a900473ffffffffffffffffffffffffffffffffffffffff169050919050565b6200082484848484620009a160201b620014ff1760201c565b60018111156200086b576040517f08c379a0000000000000000000000000000000000000000000000000000000008152600401620008629062001218565b60405180910390fd5b6000829050600073ffffffffffffffffffffffffffffffffffffffff168573ffffffffffffffffffffffffffffffffffffffff161415620008bd57620008b78162000ace60201b60201c565b62000905565b8373ffffffffffffffffffffffffffffffffffffffff168573ffffffffffffffffffffffffffffffffffffffff1614620009045762000903858262000b1760201b60201c565b5b5b600073ffffffffffffffffffffffffffffffffffffffff168473ffffffffffffffffffffffffffffffffffffffff16141562000952576200094c8162000c9460201b60201c565b6200099a565b8473ffffffffffffffffffffffffffffffffffffffff168473ffffffffffffffffffffffffffffffffffffffff1614620009995762000998848262000ddc60201b60201c565b5b5b5050505050565b600181111562000ac857600073ffffffffffffffffffffffffffffffffffffffff168473ffffffffffffffffffffffffffffffffffffffff161462000a395780600360008673ffffffffffffffffffffffffffffffffffffffff1673ffffffffffffffffffffffffffffffffffffffff168152602001908152602001600020600082825462000a319190620012c4565b925050819055505b600073ffffffffffffffffffffffffffffffffffffffff168373ffffffffffffffffffffffffffffffffffffffff161462000ac75780600360008573ffffffffffffffffffffffffffffffffffffffff1673ffffffffffffffffffffffffffffffffffffffff168152602001908152602001600020600082825462000abf919062001267565b925050819055505b5b50505050565b6008805490506009600083815260200190815260200160002081905550600881908060018154018082558091505060019003906000526020600020016000909190919091505550565b6000600162000b318462000e6860201b62000e931760201c565b62000b3d9190620012c4565b905060006007600084815260200190815260200160002054905081811462000c23576000600660008673ffffffffffffffffffffffffffffffffffffffff1673ffffffffffffffffffffffffffffffffffffffff168152602001908152602001600020600084815260200190815260200160002054905080600660008773ffffffffffffffffffffffffffffffffffffffff1673ffffffffffffffffffffffffffffffffffffffff168152602001908152602001600020600084815260200190815260200160002081905550816007600083815260200190815260200160002081905550505b6007600084815260200190815260200160002060009055600660008573ffffffffffffffffffffffffffffffffffffffff1673ffffffffffffffffffffffffffffffffffffffff16815260200190815260200160002060008381526020019081526020016000206000905550505050565b6000600160088054905062000caa9190620012c4565b905060006009600084815260200190815260200160002054905060006008838154811062000d01577f4e487b7100000000000000000000000000000000000000000000000000000000600052603260045260246000fd5b90600052602060002001549050806008838154811062000d4a577f4e487b7100000000000000000000000000000000000000000000000000000000600052603260045260246000fd5b90600052602060002001819055508160096000838152602001908152602001600020819055506009600085815260200190815260200160002060009055600880548062000dc0577f4e487b7100000000000000000000000000000000000000000000000000000000600052603160045260246000fd5b6001900381819060005260206000200160009055905550505050565b600062000df48362000e6860201b62000e931760201c565b905081600660008573ffffffffffffffffffffffffffffffffffffffff1673ffffffffffffffffffffffffffffffffffffffff168152602001908152602001600020600083815260200190815260200160002081905550806007600084815260200190815260200160002081905550505050565b60008073ffffffffffffffffffffffffffffffffffffffff168273ffffffffffffffffffffffffffffffffffffffff16141562000edc576040517f08c379a000000000000000000000000000000000000000000000000000000000815260040162000ed390620011d4565b60405180910390fd5b600360008373ffffffffffffffffffffffffffffffffffffffff1673ffffffffffffffffffffffffffffffffffffffff168152602001908152602001600020549050919050565b82805462000f31906200139f565b90600052602060002090601f01602090048101928262000f55576000855562000fa1565b82601f1062000f7057805160ff191683800117855562000fa1565b8280016001018555821562000fa1579182015b8281111562000fa057825182559160200191906001019062000f83565b5b50905062000fb0919062000fb4565b5090565b5b8082111562000fcf57600081600090555060010162000fb5565b5090565b60008151905062000fe48162001583565b92915050565b60006020828403121562000ffd57600080fd5b60006200100d8482850162000fd3565b91505092915050565b6200102181620012ff565b82525050565b600062001034826200123a565b62001040818562001245565b93506200105281856020860162001369565b6200105d8162001433565b840191505092915050565b60006200107760328362001256565b9150620010848262001444565b604082019050919050565b60006200109e601c8362001256565b9150620010ab8262001493565b602082019050919050565b6000620010c560298362001256565b9150620010d282620014bc565b604082019050919050565b6000620010ec60208362001256565b9150620010f9826200150b565b602082019050919050565b60006200111360358362001256565b9150620011208262001534565b604082019050919050565b62001136816200135f565b82525050565b600060808201905062001153600083018762001016565b62001162602083018662001016565b6200117160408301856200112b565b818103606083015262001185818462001027565b905095945050505050565b60006020820190508181036000830152620011ab8162001068565b9050919050565b60006020820190508181036000830152620011cd816200108f565b9050919050565b60006020820190508181036000830152620011ef81620010b6565b9050919050565b600060208201905081810360008301526200121181620010dd565b9050919050565b60006020820190508181036000830152620012338162001104565b9050919050565b600081519050919050565b600082825260208201905092915050565b600082825260208201905092915050565b600062001274826200135f565b915062001281836200135f565b9250827fffffffffffffffffffffffffffffffffffffffffffffffffffffffffffffffff03821115620012b957620012b8620013d5565b5b828201905092915050565b6000620012d1826200135f565b9150620012de836200135f565b925082821015620012f457620012f3620013d5565b5b828203905092915050565b60006200130c826200133f565b9050919050565b60007fffffffff0000000000000000000000000000000000000000000000000000000082169050919050565b600073ffffffffffffffffffffffffffffffffffffffff82169050919050565b6000819050919050565b60005b83811015620013895780820151818401526020810190506200136c565b8381111562001399576000848401525b50505050565b60006002820490506001821680620013b857607f821691505b60208210811415620013cf57620013ce62001404565b5b50919050565b7f4e487b7100000000000000000000000000000000000000000000000000000000600052601160045260246000fd5b7f4e487b7100000000000000000000000000000000000000000000000000000000600052602260045260246000fd5b6000601f19601f8301169050919050565b7f4552433732313a207472616e7366657220746f206e6f6e20455243373231526560008201527f63656976657220696d706c656d656e7465720000000000000000000000000000602082015250565b7f4552433732313a20746f6b656e20616c7265616479206d696e74656400000000600082015250565b7f4552433732313a2061646472657373207a65726f206973206e6f74206120766160008201527f6c6964206f776e65720000000000000000000000000000000000000000000000602082015250565b7f4552433732313a206d696e7420746f20746865207a65726f2061646472657373600082015250565b7f455243373231456e756d657261626c653a20636f6e736563757469766520747260008201527f616e7366657273206e6f7420737570706f727465640000000000000000000000602082015250565b6200158e8162001313565b81146200159a57600080fd5b50565b61507380620015ad6000396000f3fe6080604052600436106101cc5760003560e01c80636352211e116100f7578063a0c5407811610095578063c87b56dd11610064578063c87b56dd146106c4578063db006a7514610701578063e985e9c51461072a578063f2fde38b14610767576101cc565b8063a0c540781461061e578063a22cb46514610649578063b2c94ee614610672578063b88d4fde1461069b576101cc565b8063812cf9ff116100d1578063812cf9ff1461054e5780638da5cb5b1461058b578063912fc446146105b657806395d89b41146105f3576101cc565b80636352211e146104bd57806370a08231146104fa578063715018a614610537576101cc565b80632f745c591161016f5780634b3197131161013e5780634b319713146103db5780634f6ccce71461040657806361adb7281461044357806361c02efb14610480576101cc565b80632f745c591461031c57806332f26694146103595780633bf04f661461039657806342842e0e146103b2576101cc565b8063081812fc116101ab578063081812fc14610262578063095ea7b31461029f57806318160ddd146102c857806323b872dd146102f3576101cc565b806216bf81146101d157806301ffc9a7146101fa57806306fdde0314610237575b600080fd5b3480156101dd57600080fd5b506101f860048036038101906101f39190613a6a565b610790565b005b34801561020657600080fd5b50610221600480360381019061021c9190613aab565b610812565b60405161022e9190614166565b60405180910390f35b34801561024357600080fd5b5061024c610824565b6040516102599190614181565b60405180910390f35b34801561026e57600080fd5b5061028960048036038101906102849190613b3e565b6108b6565b60405161029691906140dd565b60405180910390f35b3480156102ab57600080fd5b506102c660048036038101906102c19190613a2e565b6108fc565b005b3480156102d457600080fd5b506102dd610a14565b6040516102ea91906144a3565b60405180910390f35b3480156102ff57600080fd5b5061031a60048036038101906103159190613928565b610a21565b005b34801561032857600080fd5b50610343600480360381019061033e9190613a2e565b610a81565b60405161035091906144a3565b60405180910390f35b34801561036557600080fd5b50610380600480360381019061037b9190613b3e565b610b26565b60405161038d91906144a3565b60405180910390f35b6103b060048036038101906103ab9190613b67565b610b43565b005b3480156103be57600080fd5b506103d960048036038101906103d49190613928565b610cc3565b005b3480156103e757600080fd5b506103f0610ce3565b6040516103fd91906144a3565b60405180910390f35b34801561041257600080fd5b5061042d60048036038101906104289190613b3e565b610ced565b60405161043a91906144a3565b60405180910390f35b34801561044f57600080fd5b5061046a60048036038101906104659190613b3e565b610d84565b6040516104779190614144565b60405180910390f35b34801561048c57600080fd5b506104a760048036038101906104a29190613b3e565b610def565b6040516104b491906144a3565b60405180910390f35b3480156104c957600080fd5b506104e460048036038101906104df9190613b3e565b610e0c565b6040516104f191906140dd565b60405180910390f35b34801561050657600080fd5b50610521600480360381019061051c91906138c3565b610e93565b60405161052e91906144a3565b60405180910390f35b34801561054357600080fd5b5061054c610f4b565b005b34801561055a57600080fd5b5061057560048036038101906105709190613b3e565b610f5f565b60405161058291906144a3565b60405180910390f35b34801561059757600080fd5b506105a0610f7c565b6040516105ad91906140dd565b60405180910390f35b3480156105c257600080fd5b506105dd60048036038101906105d891906138c3565b610fa6565b6040516105ea91906144a3565b60405180910390f35b3480156105ff57600080fd5b50610608610fef565b6040516106159190614181565b60405180910390f35b34801561062a57600080fd5b50610633611081565b6040516106409190614181565b60405180910390f35b34801561065557600080fd5b50610670600480360381019061066b91906139f2565b611113565b005b34801561067e57600080fd5b5061069960048036038101906106949190613afd565b611129565b005b3480156106a757600080fd5b506106c260048036038101906106bd9190613977565b61114b565b005b3480156106d057600080fd5b506106eb60048036038101906106e69190613b3e565b6111ad565b6040516106f89190614181565b60405180910390f35b34801561070d57600080fd5b5061072860048036038101906107239190613b3e565b611215565b005b34801561073657600080fd5b50610751600480360381019061074c91906138ec565b611231565b60405161075e9190614166565b60405180910390f35b34801561077357600080fd5b5061078e600480360381019061078991906138c3565b6112c5565b005b610798611625565b60008151905060005b81811015610805576107f28382815181106107e5577f4e487b7100000000000000000000000000000000000000000000000000000000600052603260045260246000fd5b6020026020010151611675565b80806107fd90614860565b9150506107a1565b505061080f61194a565b50565b600061081d82611954565b9050919050565b606060008054610833906147fd565b80601f016020809104026020016040519081016040528092919081815260200182805461085f906147fd565b80156108ac5780601f10610881576101008083540402835291602001916108ac565b820191906000526020600020905b81548152906001019060200180831161088f57829003601f168201915b5050505050905090565b60006108c1826119ce565b6004600083815260200190815260200160002060009054906101000a900473ffffffffffffffffffffffffffffffffffffffff169050919050565b600061090782610e0c565b90508073ffffffffffffffffffffffffffffffffffffffff168373ffffffffffffffffffffffffffffffffffffffff161415610978576040517f08c379a000000000000000000000000000000000000000000000000000000000815260040161096f906143a3565b60405180910390fd5b8073ffffffffffffffffffffffffffffffffffffffff16610997611a19565b73ffffffffffffffffffffffffffffffffffffffff1614806109c657506109c5816109c0611a19565b611231565b5b610a05576040517f08c379a00000000000000000000000000000000000000000000000000000000081526004016109fc906143e3565b60405180910390fd5b610a0f8383611a21565b505050565b6000600880549050905090565b610a32610a2c611a19565b82611ada565b610a71576040517f08c379a0000000000000000000000000000000000000000000000000000000008152600401610a68906141a3565b60405180910390fd5b610a7c838383611b6f565b505050565b6000610a8c83610e93565b8210610acd576040517f08c379a0000000000000000000000000000000000000000000000000000000008152600401610ac4906141c3565b60405180910390fd5b600660008473ffffffffffffffffffffffffffffffffffffffff1673ffffffffffffffffffffffffffffffffffffffff168152602001908152602001600020600083815260200190815260200160002054905092915050565b600060116000838152602001908152602001600020549050919050565b610b4b611625565b610b5482611e69565b610b93576040517f08c379a0000000000000000000000000000000000000000000000000000000008152600401610b8a90614283565b60405180910390fd5b60108160ff161115610bda576040517f08c379a0000000000000000000000000000000000000000000000000000000008152600401610bd190614483565b60405180910390fd5b8060ff16670214e8348c4f0000610bf1919061469a565b341015610c33576040517f08c379a0000000000000000000000000000000000000000000000000000000008152600401610c2a906142e3565b60405180910390fd5b60005b8160ff168160ff161015610c6057610c4d83611eaa565b8080610c58906148a9565b915050610c36565b5081610c6a611a19565b73ffffffffffffffffffffffffffffffffffffffff167f4c209b5fc8ad50758f13e2e1088ba56a560dff690a1c6fef26394f4c03821c4f83604051610caf91906144be565b60405180910390a3610cbf61194a565b5050565b610cde8383836040518060200160405280600081525061114b565b505050565b6000601354905090565b6000610cf7610a14565b8210610d38576040517f08c379a0000000000000000000000000000000000000000000000000000000008152600401610d2f90614403565b60405180910390fd5b60088281548110610d72577f4e487b7100000000000000000000000000000000000000000000000000000000600052603260045260246000fd5b90600052602060002001549050919050565b6060600e6000838152602001908152602001600020805480602002602001604051908101604052809291908181526020018280548015610de357602002820191906000526020600020905b815481526020019060010190808311610dcf575b50505050509050919050565b600060106000838152602001908152602001600020549050919050565b600080610e1883611fa6565b9050600073ffffffffffffffffffffffffffffffffffffffff168173ffffffffffffffffffffffffffffffffffffffff161415610e8a576040517f08c379a0000000000000000000000000000000000000000000000000000000008152600401610e8190614383565b60405180910390fd5b80915050919050565b60008073ffffffffffffffffffffffffffffffffffffffff168273ffffffffffffffffffffffffffffffffffffffff161415610f04576040517f08c379a0000000000000000000000000000000000000000000000000000000008152600401610efb90614303565b60405180910390fd5b600360008373ffffffffffffffffffffffffffffffffffffffff1673ffffffffffffffffffffffffffffffffffffffff168152602001908152602001600020549050919050565b610f53611fe3565b610f5d6000612061565b565b6000600f6000838152602001908152602001600020549050919050565b6000600a60009054906101000a900473ffffffffffffffffffffffffffffffffffffffff16905090565b6000601260008373ffffffffffffffffffffffffffffffffffffffff1673ffffffffffffffffffffffffffffffffffffffff168152602001908152602001600020549050919050565b606060018054610ffe906147fd565b80601f016020809104026020016040519081016040528092919081815260200182805461102a906147fd565b80156110775780601f1061104c57610100808354040283529160200191611077565b820191906000526020600020905b81548152906001019060200180831161105a57829003601f168201915b5050505050905090565b6060600d8054611090906147fd565b80601f01602080910402602001604051908101604052809291908181526020018280546110bc906147fd565b80156111095780601f106110de57610100808354040283529160200191611109565b820191906000526020600020905b8154815290600101906020018083116110ec57829003601f168201915b5050505050905090565b61112561111e611a19565b8383612127565b5050565b611131611fe3565b80600d908051906020019061114792919061363c565b5050565b61115c611156611a19565b83611ada565b61119b576040517f08c379a0000000000000000000000000000000000000000000000000000000008152600401611192906141a3565b60405180910390fd5b6111a784848484612294565b50505050565b60606111b8826119ce565b60006111c26122f0565b905060008151116111e2576040518060200160405280600081525061120d565b806111ec84612382565b6040516020016111fd929190614089565b6040516020818303038152906040525b915050919050565b61121d611625565b61122681611675565b61122e61194a565b50565b6000600560008473ffffffffffffffffffffffffffffffffffffffff1673ffffffffffffffffffffffffffffffffffffffff16815260200190815260200160002060008373ffffffffffffffffffffffffffffffffffffffff1673ffffffffffffffffffffffffffffffffffffffff16815260200190815260200160002060009054906101000a900460ff16905092915050565b6112cd611fe3565b600073ffffffffffffffffffffffffffffffffffffffff168173ffffffffffffffffffffffffffffffffffffffff16141561133d576040517f08c379a000000000000000000000000000000000000000000000000000000000815260040161133490614223565b60405180910390fd5b61134681612061565b50565b620186a0816000018190555050565b600081600001549050919050565b6001816000016000828254019250508190555050565b6000808273ffffffffffffffffffffffffffffffffffffffff163b119050919050565b6113ab848484846114ff565b60018111156113ef576040517f08c379a00000000000000000000000000000000000000000000000000000000081526004016113e690614443565b60405180910390fd5b6000829050600073ffffffffffffffffffffffffffffffffffffffff168573ffffffffffffffffffffffffffffffffffffffff16141561143757611432816124a6565b611476565b8373ffffffffffffffffffffffffffffffffffffffff168573ffffffffffffffffffffffffffffffffffffffff16146114755761147485826124ef565b5b5b600073ffffffffffffffffffffffffffffffffffffffff168473ffffffffffffffffffffffffffffffffffffffff1614156114b9576114b48161265c565b6114f8565b8473ffffffffffffffffffffffffffffffffffffffff168473ffffffffffffffffffffffffffffffffffffffff16146114f7576114f6848261279f565b5b5b5050505050565b600181111561161f57600073ffffffffffffffffffffffffffffffffffffffff168473ffffffffffffffffffffffffffffffffffffffff16146115935780600360008673ffffffffffffffffffffffffffffffffffffffff1673ffffffffffffffffffffffffffffffffffffffff168152602001908152602001600020600082825461158b91906146f4565b925050819055505b600073ffffffffffffffffffffffffffffffffffffffff168373ffffffffffffffffffffffffffffffffffffffff161461161e5780600360008573ffffffffffffffffffffffffffffffffffffffff1673ffffffffffffffffffffffffffffffffffffffff16815260200190815260200160002060008282546116169190614613565b925050819055505b5b50505050565b6002600b54141561166b576040517f08c379a000000000000000000000000000000000000000000000000000000000815260040161166290614463565b60405180910390fd5b6002600b81905550565b61167d611a19565b73ffffffffffffffffffffffffffffffffffffffff1661169c82610e0c565b73ffffffffffffffffffffffffffffffffffffffff16146116f2576040517f08c379a00000000000000000000000000000000000000000000000000000000081526004016116e9906143c3565b60405180910390fd5b6002600e600083815260200190815260200160002080549050101561174c576040517f08c379a0000000000000000000000000000000000000000000000000000000008152600401611743906141e3565b60405180910390fd5b600060106000838152602001908152602001600020549050600081116117a7576040517f08c379a000000000000000000000000000000000000000000000000000000000815260040161179e90614423565b60405180910390fd5b6000601060008481526020019081526020016000208190555080601260006117cd611a19565b73ffffffffffffffffffffffffffffffffffffffff1673ffffffffffffffffffffffffffffffffffffffff16815260200190815260200160002060008282546118169190614613565b92505081905550806013600082825461182f9190614613565b925050819055506000611840611a19565b905060008173ffffffffffffffffffffffffffffffffffffffff1683604051611868906140ad565b60006040518083038185875af1925050503d80600081146118a5576040519150601f19603f3d011682016040523d82523d6000602084013e6118aa565b606091505b50509050806118ee576040517f08c379a00000000000000000000000000000000000000000000000000000000081526004016118e590614363565b60405180910390fd5b836118f7611a19565b73ffffffffffffffffffffffffffffffffffffffff167fe5b754fb1abb7f01b499791d0b820ae3b6af3424ac1c59768edb53f4ec31a9298560405161193c91906144a3565b60405180910390a350505050565b6001600b81905550565b60007f780e9d63000000000000000000000000000000000000000000000000000000007bffffffffffffffffffffffffffffffffffffffffffffffffffffffff1916827bffffffffffffffffffffffffffffffffffffffffffffffffffffffff191614806119c757506119c68261281e565b5b9050919050565b6119d781611e69565b611a16576040517f08c379a0000000000000000000000000000000000000000000000000000000008152600401611a0d90614383565b60405180910390fd5b50565b600033905090565b816004600083815260200190815260200160002060006101000a81548173ffffffffffffffffffffffffffffffffffffffff021916908373ffffffffffffffffffffffffffffffffffffffff160217905550808273ffffffffffffffffffffffffffffffffffffffff16611a9483610e0c565b73ffffffffffffffffffffffffffffffffffffffff167f8c5be1e5ebec7d5bd14f71427d1e84f3dd0314c0f7b2291e5b200ac8c7c3b92560405160405180910390a45050565b600080611ae683610e0c565b90508073ffffffffffffffffffffffffffffffffffffffff168473ffffffffffffffffffffffffffffffffffffffff161480611b285750611b278185611231565b5b80611b6657508373ffffffffffffffffffffffffffffffffffffffff16611b4e846108b6565b73ffffffffffffffffffffffffffffffffffffffff16145b91505092915050565b8273ffffffffffffffffffffffffffffffffffffffff16611b8f82610e0c565b73ffffffffffffffffffffffffffffffffffffffff1614611be5576040517f08c379a0000000000000000000000000000000000000000000000000000000008152600401611bdc90614243565b60405180910390fd5b600073ffffffffffffffffffffffffffffffffffffffff168273ffffffffffffffffffffffffffffffffffffffff161415611c55576040517f08c379a0000000000000000000000000000000000000000000000000000000008152600401611c4c906142a3565b60405180910390fd5b611c628383836001612900565b8273ffffffffffffffffffffffffffffffffffffffff16611c8282610e0c565b73ffffffffffffffffffffffffffffffffffffffff1614611cd8576040517f08c379a0000000000000000000000000000000000000000000000000000000008152600401611ccf90614243565b60405180910390fd5b6004600082815260200190815260200160002060006101000a81549073ffffffffffffffffffffffffffffffffffffffff02191690556001600360008573ffffffffffffffffffffffffffffffffffffffff1673ffffffffffffffffffffffffffffffffffffffff168152602001908152602001600020600082825403925050819055506001600360008473ffffffffffffffffffffffffffffffffffffffff1673ffffffffffffffffffffffffffffffffffffffff16815260200190815260200160002060008282540192505081905550816002600083815260200190815260200160002060006101000a81548173ffffffffffffffffffffffffffffffffffffffff021916908373ffffffffffffffffffffffffffffffffffffffff160217905550808273ffffffffffffffffffffffffffffffffffffffff168473ffffffffffffffffffffffffffffffffffffffff167fddf252ad1be2c89b69c2b068fc378daa952ba7f163c4a11628f55a4df523b3ef60405160405180910390a4611e648383836001612912565b505050565b60008073ffffffffffffffffffffffffffffffffffffffff16611e8b83611fa6565b73ffffffffffffffffffffffffffffffffffffffff1614159050919050565b6000611eb6600c611358565b9050611ec2600c611366565b611ed3611ecd611a19565b82612918565b6000600167ffffffffffffffff811115611f16577f4e487b7100000000000000000000000000000000000000000000000000000000600052604160045260246000fd5b604051908082528060200260200182016040528015611f445781602001602082028036833780820191505090505b5090508281600081518110611f82577f4e487b7100000000000000000000000000000000000000000000000000000000600052603260045260246000fd5b602002602001018181525050611f988183612936565b611fa182612d4b565b505050565b60006002600083815260200190815260200160002060009054906101000a900473ffffffffffffffffffffffffffffffffffffffff169050919050565b611feb611a19565b73ffffffffffffffffffffffffffffffffffffffff16612009610f7c565b73ffffffffffffffffffffffffffffffffffffffff161461205f576040517f08c379a000000000000000000000000000000000000000000000000000000000815260040161205690614343565b60405180910390fd5b565b6000600a60009054906101000a900473ffffffffffffffffffffffffffffffffffffffff16905081600a60006101000a81548173ffffffffffffffffffffffffffffffffffffffff021916908373ffffffffffffffffffffffffffffffffffffffff1602179055508173ffffffffffffffffffffffffffffffffffffffff168173ffffffffffffffffffffffffffffffffffffffff167f8be0079c531659141344cd1fd0a4f28419497f9722a3daafe3b4186f6b6457e060405160405180910390a35050565b8173ffffffffffffffffffffffffffffffffffffffff168373ffffffffffffffffffffffffffffffffffffffff161415612196576040517f08c379a000000000000000000000000000000000000000000000000000000000815260040161218d906142c3565b60405180910390fd5b80600560008573ffffffffffffffffffffffffffffffffffffffff1673ffffffffffffffffffffffffffffffffffffffff16815260200190815260200160002060008473ffffffffffffffffffffffffffffffffffffffff1673ffffffffffffffffffffffffffffffffffffffff16815260200190815260200160002060006101000a81548160ff0219169083151502179055508173ffffffffffffffffffffffffffffffffffffffff168373ffffffffffffffffffffffffffffffffffffffff167f17307eab39ab6107e8899845ad3d59bd9653f200f220920489ca2b5937696c31836040516122879190614166565b60405180910390a3505050565b61229f848484611b6f565b6122ab84848484612e05565b6122ea576040517f08c379a00000000000000000000000000000000000000000000000000000000081526004016122e190614203565b60405180910390fd5b50505050565b6060600d80546122ff906147fd565b80601f016020809104026020016040519081016040528092919081815260200182805461232b906147fd565b80156123785780601f1061234d57610100808354040283529160200191612378565b820191906000526020600020905b81548152906001019060200180831161235b57829003601f168201915b5050505050905090565b60606000600161239184612f9c565b01905060008167ffffffffffffffff8111156123d6577f4e487b7100000000000000000000000000000000000000000000000000000000600052604160045260246000fd5b6040519080825280601f01601f1916602001820160405280156124085781602001600182028036833780820191505090505b509050600082602001820190505b60011561249b578080600190039150507f3031323334353637383961626364656600000000000000000000000000000000600a86061a8153600a8581612485577f4e487b7100000000000000000000000000000000000000000000000000000000600052601260045260246000fd5b04945060008514156124965761249b565b612416565b819350505050919050565b6008805490506009600083815260200190815260200160002081905550600881908060018154018082558091505060019003906000526020600020016000909190919091505550565b600060016124fc84610e93565b61250691906146f4565b90506000600760008481526020019081526020016000205490508181146125eb576000600660008673ffffffffffffffffffffffffffffffffffffffff1673ffffffffffffffffffffffffffffffffffffffff168152602001908152602001600020600084815260200190815260200160002054905080600660008773ffffffffffffffffffffffffffffffffffffffff1673ffffffffffffffffffffffffffffffffffffffff168152602001908152602001600020600084815260200190815260200160002081905550816007600083815260200190815260200160002081905550505b6007600084815260200190815260200160002060009055600660008573ffffffffffffffffffffffffffffffffffffffff1673ffffffffffffffffffffffffffffffffffffffff16815260200190815260200160002060008381526020019081526020016000206000905550505050565b6000600160088054905061267091906146f4565b90506000600960008481526020019081526020016000205490506000600883815481106126c6577f4e487b7100000000000000000000000000000000000000000000000000000000600052603260045260246000fd5b90600052602060002001549050806008838154811061270e577f4e487b7100000000000000000000000000000000000000000000000000000000600052603260045260246000fd5b906000526020600020018190555081600960008381526020019081526020016000208190555060096000858152602001908152602001600020600090556008805480612783577f4e487b7100000000000000000000000000000000000000000000000000000000600052603160045260246000fd5b6001900381819060005260206000200160009055905550505050565b60006127aa83610e93565b905081600660008573ffffffffffffffffffffffffffffffffffffffff1673ffffffffffffffffffffffffffffffffffffffff168152602001908152602001600020600083815260200190815260200160002081905550806007600084815260200190815260200160002081905550505050565b60007f80ac58cd000000000000000000000000000000000000000000000000000000007bffffffffffffffffffffffffffffffffffffffffffffffffffffffff1916827bffffffffffffffffffffffffffffffffffffffffffffffffffffffff191614806128e957507f5b5e139f000000000000000000000000000000000000000000000000000000007bffffffffffffffffffffffffffffffffffffffffffffffffffffffff1916827bffffffffffffffffffffffffffffffffffffffffffffffffffffffff1916145b806128f957506128f8826131d3565b5b9050919050565b61290c8484848461139f565b50505050565b50505050565b61293282826040518060200160405280600081525061323d565b5050565b6000601090506000816002855161294d919061469a565b116129655760028451612960919061469a565b612967565b815b67ffffffffffffffff8111156129a6577f4e487b7100000000000000000000000000000000000000000000000000000000600052604160045260246000fd5b6040519080825280602002602001820160405280156129d45781602001602082028036833780820191505090505b5090506129e084613298565b60005b8451811015612d39576002600e6000878481518110612a2b577f4e487b7100000000000000000000000000000000000000000000000000000000600052603260045260246000fd5b60200260200101518152602001908152602001600020805490501015612b2557600e6000868381518110612a88577f4e487b7100000000000000000000000000000000000000000000000000000000600052603260045260246000fd5b60200260200101518152602001908152602001600020849080600181540180825580915050600190039060005260206000200160009091909190915055848181518110612afe577f4e487b7100000000000000000000000000000000000000000000000000000000600052603260045260246000fd5b6020026020010151600f600086815260200190815260200160002081905550505050612d47565b600e6000868381518110612b62577f4e487b7100000000000000000000000000000000000000000000000000000000600052603260045260246000fd5b60200260200101518152602001908152602001600020600081548110612bb1577f4e487b7100000000000000000000000000000000000000000000000000000000600052603260045260246000fd5b906000526020600020015482826002612bca919061469a565b81518110612c01577f4e487b7100000000000000000000000000000000000000000000000000000000600052603260045260246000fd5b602002602001018181525050600e6000868381518110612c4a577f4e487b7100000000000000000000000000000000000000000000000000000000600052603260045260246000fd5b60200260200101518152602001908152602001600020600181548110612c99577f4e487b7100000000000000000000000000000000000000000000000000000000600052603260045260246000fd5b9060005260206000200154826001836002612cb4919061469a565b612cbe9190614613565b81518110612cf5577f4e487b7100000000000000000000000000000000000000000000000000000000600052603260045260246000fd5b6020026020010181815250506001600284612d109190614669565b612d1a91906146f4565b811415612d2657612d39565b8080612d3190614860565b9150506129e3565b50612d448184612936565b50505b5050565b6000600f600083815260200190815260200160002054905060005b600f60ff168160ff161015612e0057662386f26fc10000601060008481526020019081526020016000206000828254612d9f9190614613565b92505081905550662386f26fc10000601160008481526020019081526020016000206000828254612dd09190614613565b92505081905550600f60008381526020019081526020016000205491508080612df8906148a9565b915050612d66565b505050565b6000612e268473ffffffffffffffffffffffffffffffffffffffff1661137c565b15612f8f578373ffffffffffffffffffffffffffffffffffffffff1663150b7a02612e4f611a19565b8786866040518563ffffffff1660e01b8152600401612e7194939291906140f8565b602060405180830381600087803b158015612e8b57600080fd5b505af1925050508015612ebc57506040513d601f19601f82011682018060405250810190612eb99190613ad4565b60015b612f3f573d8060008114612eec576040519150601f19603f3d011682016040523d82523d6000602084013e612ef1565b606091505b50600081511415612f37576040517f08c379a0000000000000000000000000000000000000000000000000000000008152600401612f2e90614203565b60405180910390fd5b805181602001fd5b63150b7a0260e01b7bffffffffffffffffffffffffffffffffffffffffffffffffffffffff1916817bffffffffffffffffffffffffffffffffffffffffffffffffffffffff191614915050612f94565b600190505b949350505050565b600080600090507a184f03e93ff9f4daa797ed6e38ed64bf6a1f0100000000000000008310613020577a184f03e93ff9f4daa797ed6e38ed64bf6a1f0100000000000000008381613016577f4e487b7100000000000000000000000000000000000000000000000000000000600052601260045260246000fd5b0492506040810190505b6d04ee2d6d415b85acef81000000008310613083576d04ee2d6d415b85acef81000000008381613079577f4e487b7100000000000000000000000000000000000000000000000000000000600052601260045260246000fd5b0492506020810190505b662386f26fc1000083106130d857662386f26fc1000083816130ce577f4e487b7100000000000000000000000000000000000000000000000000000000600052601260045260246000fd5b0492506010810190505b6305f5e1008310613127576305f5e100838161311d577f4e487b7100000000000000000000000000000000000000000000000000000000600052601260045260246000fd5b0492506008810190505b6127108310613172576127108381613168577f4e487b7100000000000000000000000000000000000000000000000000000000600052601260045260246000fd5b0492506004810190505b606483106131bb57606483816131b1577f4e487b7100000000000000000000000000000000000000000000000000000000600052601260045260246000fd5b0492506002810190505b600a83106131ca576001810190505b80915050919050565b60007f01ffc9a7000000000000000000000000000000000000000000000000000000007bffffffffffffffffffffffffffffffffffffffffffffffffffffffff1916827bffffffffffffffffffffffffffffffffffffffffffffffffffffffff1916149050919050565b613247838361341e565b6132546000848484612e05565b613293576040517f08c379a000000000000000000000000000000000000000000000000000000000815260040161328a90614203565b60405180910390fd5b505050565b60005b815181101561341a5760008183516132b391906146f4565b426040516020016132c491906140c2565b6040516020818303038152906040528051906020012060001c6132e791906148dd565b826132f29190614613565b9050600083828151811061332f577f4e487b7100000000000000000000000000000000000000000000000000000000600052603260045260246000fd5b60200260200101519050838381518110613372577f4e487b7100000000000000000000000000000000000000000000000000000000600052603260045260246000fd5b60200260200101518483815181106133b3577f4e487b7100000000000000000000000000000000000000000000000000000000600052603260045260246000fd5b602002602001018181525050808484815181106133f9577f4e487b7100000000000000000000000000000000000000000000000000000000600052603260045260246000fd5b6020026020010181815250505050808061341290614860565b91505061329b565b5050565b600073ffffffffffffffffffffffffffffffffffffffff168273ffffffffffffffffffffffffffffffffffffffff16141561348e576040517f08c379a000000000000000000000000000000000000000000000000000000000815260040161348590614323565b60405180910390fd5b61349781611e69565b156134d7576040517f08c379a00000000000000000000000000000000000000000000000000000000081526004016134ce90614263565b60405180910390fd5b6134e5600083836001612900565b6134ee81611e69565b1561352e576040517f08c379a000000000000000000000000000000000000000000000000000000000815260040161352590614263565b60405180910390fd5b6001600360008473ffffffffffffffffffffffffffffffffffffffff1673ffffffffffffffffffffffffffffffffffffffff16815260200190815260200160002060008282540192505081905550816002600083815260200190815260200160002060006101000a81548173ffffffffffffffffffffffffffffffffffffffff021916908373ffffffffffffffffffffffffffffffffffffffff160217905550808273ffffffffffffffffffffffffffffffffffffffff16600073ffffffffffffffffffffffffffffffffffffffff167fddf252ad1be2c89b69c2b068fc378daa952ba7f163c4a11628f55a4df523b3ef60405160405180910390a4613638600083836001612912565b5050565b828054613648906147fd565b90600052602060002090601f01602090048101928261366a57600085556136b1565b82601f1061368357805160ff19168380011785556136b1565b828001600101855582156136b1579182015b828111156136b0578251825591602001919060010190613695565b5b5090506136be91906136c2565b5090565b5b808211156136db5760008160009055506001016136c3565b5090565b60006136f26136ed846144fe565b6144d9565b9050808382526020820190508285602086028201111561371157600080fd5b60005b8581101561374157816137278882613899565b845260208401935060208301925050600181019050613714565b5050509392505050565b600061375e6137598461452a565b6144d9565b90508281526020810184848401111561377657600080fd5b6137818482856147bb565b509392505050565b600061379c6137978461455b565b6144d9565b9050828152602081018484840111156137b457600080fd5b6137bf8482856147bb565b509392505050565b6000813590506137d681614fca565b92915050565b600082601f8301126137ed57600080fd5b81356137fd8482602086016136df565b91505092915050565b60008135905061381581614fe1565b92915050565b60008135905061382a81614ff8565b92915050565b60008151905061383f81614ff8565b92915050565b600082601f83011261385657600080fd5b813561386684826020860161374b565b91505092915050565b600082601f83011261388057600080fd5b8135613890848260208601613789565b91505092915050565b6000813590506138a88161500f565b92915050565b6000813590506138bd81615026565b92915050565b6000602082840312156138d557600080fd5b60006138e3848285016137c7565b91505092915050565b600080604083850312156138ff57600080fd5b600061390d858286016137c7565b925050602061391e858286016137c7565b9150509250929050565b60008060006060848603121561393d57600080fd5b600061394b868287016137c7565b935050602061395c868287016137c7565b925050604061396d86828701613899565b9150509250925092565b6000806000806080858703121561398d57600080fd5b600061399b878288016137c7565b94505060206139ac878288016137c7565b93505060406139bd87828801613899565b925050606085013567ffffffffffffffff8111156139da57600080fd5b6139e687828801613845565b91505092959194509250565b60008060408385031215613a0557600080fd5b6000613a13858286016137c7565b9250506020613a2485828601613806565b9150509250929050565b60008060408385031215613a4157600080fd5b6000613a4f858286016137c7565b9250506020613a6085828601613899565b9150509250929050565b600060208284031215613a7c57600080fd5b600082013567ffffffffffffffff811115613a9657600080fd5b613aa2848285016137dc565b91505092915050565b600060208284031215613abd57600080fd5b6000613acb8482850161381b565b91505092915050565b600060208284031215613ae657600080fd5b6000613af484828501613830565b91505092915050565b600060208284031215613b0f57600080fd5b600082013567ffffffffffffffff811115613b2957600080fd5b613b358482850161386f565b91505092915050565b600060208284031215613b5057600080fd5b6000613b5e84828501613899565b91505092915050565b60008060408385031215613b7a57600080fd5b6000613b8885828601613899565b9250506020613b99858286016138ae565b9150509250929050565b6000613baf8383614045565b60208301905092915050565b613bc481614728565b82525050565b6000613bd58261459c565b613bdf81856145ca565b9350613bea8361458c565b8060005b83811015613c1b578151613c028882613ba3565b9750613c0d836145bd565b925050600181019050613bee565b5085935050505092915050565b613c318161473a565b82525050565b6000613c42826145a7565b613c4c81856145db565b9350613c5c8185602086016147ca565b613c65816149ca565b840191505092915050565b6000613c7b826145b2565b613c8581856145f7565b9350613c958185602086016147ca565b613c9e816149ca565b840191505092915050565b6000613cb4826145b2565b613cbe8185614608565b9350613cce8185602086016147ca565b80840191505092915050565b6000613ce7602d836145f7565b9150613cf2826149db565b604082019050919050565b6000613d0a602b836145f7565b9150613d1582614a2a565b604082019050919050565b6000613d2d6029836145f7565b9150613d3882614a79565b604082019050919050565b6000613d506032836145f7565b9150613d5b82614ac8565b604082019050919050565b6000613d736026836145f7565b9150613d7e82614b17565b604082019050919050565b6000613d966025836145f7565b9150613da182614b66565b604082019050919050565b6000613db9601c836145f7565b9150613dc482614bb5565b602082019050919050565b6000613ddc601c836145f7565b9150613de782614bde565b602082019050919050565b6000613dff6024836145f7565b9150613e0a82614c07565b604082019050919050565b6000613e226019836145f7565b9150613e2d82614c56565b602082019050919050565b6000613e45601e836145f7565b9150613e5082614c7f565b602082019050919050565b6000613e686029836145f7565b9150613e7382614ca8565b604082019050919050565b6000613e8b6020836145f7565b9150613e9682614cf7565b602082019050919050565b6000613eae6020836145f7565b9150613eb982614d20565b602082019050919050565b6000613ed1603d836145f7565b9150613edc82614d49565b604082019050919050565b6000613ef46018836145f7565b9150613eff82614d98565b602082019050919050565b6000613f176021836145f7565b9150613f2282614dc1565b604082019050919050565b6000613f3a601b836145f7565b9150613f4582614e10565b602082019050919050565b6000613f5d6000836145ec565b9150613f6882614e39565b600082019050919050565b6000613f80603d836145f7565b9150613f8b82614e3c565b604082019050919050565b6000613fa3602c836145f7565b9150613fae82614e8b565b604082019050919050565b6000613fc6601e836145f7565b9150613fd182614eda565b602082019050919050565b6000613fe96035836145f7565b9150613ff482614f03565b604082019050919050565b600061400c601f836145f7565b915061401782614f52565b602082019050919050565b600061402f602f836145f7565b915061403a82614f7b565b604082019050919050565b61404e81614792565b82525050565b61405d81614792565b82525050565b61407461406f82614792565b6148d3565b82525050565b614083816147a9565b82525050565b60006140958285613ca9565b91506140a18284613ca9565b91508190509392505050565b60006140b882613f50565b9150819050919050565b60006140ce8284614063565b60208201915081905092915050565b60006020820190506140f26000830184613bbb565b92915050565b600060808201905061410d6000830187613bbb565b61411a6020830186613bbb565b6141276040830185614054565b81810360608301526141398184613c37565b905095945050505050565b6000602082019050818103600083015261415e8184613bca565b905092915050565b600060208201905061417b6000830184613c28565b92915050565b6000602082019050818103600083015261419b8184613c70565b905092915050565b600060208201905081810360008301526141bc81613cda565b9050919050565b600060208201905081810360008301526141dc81613cfd565b9050919050565b600060208201905081810360008301526141fc81613d20565b9050919050565b6000602082019050818103600083015261421c81613d43565b9050919050565b6000602082019050818103600083015261423c81613d66565b9050919050565b6000602082019050818103600083015261425c81613d89565b9050919050565b6000602082019050818103600083015261427c81613dac565b9050919050565b6000602082019050818103600083015261429c81613dcf565b9050919050565b600060208201905081810360008301526142bc81613df2565b9050919050565b600060208201905081810360008301526142dc81613e15565b9050919050565b600060208201905081810360008301526142fc81613e38565b9050919050565b6000602082019050818103600083015261431c81613e5b565b9050919050565b6000602082019050818103600083015261433c81613e7e565b9050919050565b6000602082019050818103600083015261435c81613ea1565b9050919050565b6000602082019050818103600083015261437c81613ec4565b9050919050565b6000602082019050818103600083015261439c81613ee7565b9050919050565b600060208201905081810360008301526143bc81613f0a565b9050919050565b600060208201905081810360008301526143dc81613f2d565b9050919050565b600060208201905081810360008301526143fc81613f73565b9050919050565b6000602082019050818103600083015261441c81613f96565b9050919050565b6000602082019050818103600083015261443c81613fb9565b9050919050565b6000602082019050818103600083015261445c81613fdc565b9050919050565b6000602082019050818103600083015261447c81613fff565b9050919050565b6000602082019050818103600083015261449c81614022565b9050919050565b60006020820190506144b86000830184614054565b92915050565b60006020820190506144d3600083018461407a565b92915050565b60006144e36144f4565b90506144ef828261482f565b919050565b6000604051905090565b600067ffffffffffffffff8211156145195761451861499b565b5b602082029050602081019050919050565b600067ffffffffffffffff8211156145455761454461499b565b5b61454e826149ca565b9050602081019050919050565b600067ffffffffffffffff8211156145765761457561499b565b5b61457f826149ca565b9050602081019050919050565b6000819050602082019050919050565b600081519050919050565b600081519050919050565b600081519050919050565b6000602082019050919050565b600082825260208201905092915050565b600082825260208201905092915050565b600081905092915050565b600082825260208201905092915050565b600081905092915050565b600061461e82614792565b915061462983614792565b9250827fffffffffffffffffffffffffffffffffffffffffffffffffffffffffffffffff0382111561465e5761465d61490e565b5b828201905092915050565b600061467482614792565b915061467f83614792565b92508261468f5761468e61493d565b5b828204905092915050565b60006146a582614792565b91506146b083614792565b9250817fffffffffffffffffffffffffffffffffffffffffffffffffffffffffffffffff04831182151516156146e9576146e861490e565b5b828202905092915050565b60006146ff82614792565b915061470a83614792565b92508282101561471d5761471c61490e565b5b828203905092915050565b600061473382614772565b9050919050565b60008115159050919050565b60007fffffffff0000000000000000000000000000000000000000000000000000000082169050919050565b600073ffffffffffffffffffffffffffffffffffffffff82169050919050565b6000819050919050565b600060ff82169050919050565b60006147b48261479c565b9050919050565b82818337600083830152505050565b60005b838110156147e85780820151818401526020810190506147cd565b838111156147f7576000848401525b50505050565b6000600282049050600182168061481557607f821691505b602082108114156148295761482861496c565b5b50919050565b614838826149ca565b810181811067ffffffffffffffff821117156148575761485661499b565b5b80604052505050565b600061486b82614792565b91507fffffffffffffffffffffffffffffffffffffffffffffffffffffffffffffffff82141561489e5761489d61490e565b5b600182019050919050565b60006148b48261479c565b915060ff8214156148c8576148c761490e565b5b600182019050919050565b6000819050919050565b60006148e882614792565b91506148f383614792565b9250826149035761490261493d565b5b828206905092915050565b7f4e487b7100000000000000000000000000000000000000000000000000000000600052601160045260246000fd5b7f4e487b7100000000000000000000000000000000000000000000000000000000600052601260045260246000fd5b7f4e487b7100000000000000000000000000000000000000000000000000000000600052602260045260246000fd5b7f4e487b7100000000000000000000000000000000000000000000000000000000600052604160045260246000fd5b6000601f19601f8301169050919050565b7f4552433732313a2063616c6c6572206973206e6f7420746f6b656e206f776e6560008201527f72206f7220617070726f76656400000000000000000000000000000000000000602082015250565b7f455243373231456e756d657261626c653a206f776e657220696e646578206f7560008201527f74206f6620626f756e6473000000000000000000000000000000000000000000602082015250565b7f53756e726973654e46543a20526566657272616c207573616765206973206c6560008201527f7373207468616e20320000000000000000000000000000000000000000000000602082015250565b7f4552433732313a207472616e7366657220746f206e6f6e20455243373231526560008201527f63656976657220696d706c656d656e7465720000000000000000000000000000602082015250565b7f4f776e61626c653a206e6577206f776e657220697320746865207a65726f206160008201527f6464726573730000000000000000000000000000000000000000000000000000602082015250565b7f4552433732313a207472616e736665722066726f6d20696e636f72726563742060008201527f6f776e6572000000000000000000000000000000000000000000000000000000602082015250565b7f4552433732313a20746f6b656e20616c7265616479206d696e74656400000000600082015250565b7f53756e726973654e46543a20496e76616c696420746f6b656e20494400000000600082015250565b7f4552433732313a207472616e7366657220746f20746865207a65726f2061646460008201527f7265737300000000000000000000000000000000000000000000000000000000602082015250565b7f4552433732313a20617070726f766520746f2063616c6c657200000000000000600082015250565b7f53756e726973654e46543a205061796d656e74206e6f7420656e6f7567680000600082015250565b7f4552433732313a2061646472657373207a65726f206973206e6f74206120766160008201527f6c6964206f776e65720000000000000000000000000000000000000000000000602082015250565b7f4552433732313a206d696e7420746f20746865207a65726f2061646472657373600082015250565b7f4f776e61626c653a2063616c6c6572206973206e6f7420746865206f776e6572600082015250565b7f53756e726973654e46543a20556e61626c6520746f2073656e642076616c756560008201527f2c20726563697069656e74206d61792068617665207265766572746564000000602082015250565b7f4552433732313a20696e76616c696420746f6b656e2049440000000000000000600082015250565b7f4552433732313a20617070726f76616c20746f2063757272656e74206f776e6560008201527f7200000000000000000000000000000000000000000000000000000000000000602082015250565b7f53756e726973654e46543a204e6f7420746f6b656e206f776e65720000000000600082015250565b50565b7f4552433732313a20617070726f76652063616c6c6572206973206e6f7420746f60008201527f6b656e206f776e6572206f7220617070726f76656420666f7220616c6c000000602082015250565b7f455243373231456e756d657261626c653a20676c6f62616c20696e646578206f60008201527f7574206f6620626f756e64730000000000000000000000000000000000000000602082015250565b7f53756e726973654e46543a2052656465656d20616d6f756e7420697320300000600082015250565b7f455243373231456e756d657261626c653a20636f6e736563757469766520747260008201527f616e7366657273206e6f7420737570706f727465640000000000000000000000602082015250565b7f5265656e7472616e637947756172643a207265656e7472616e742063616c6c00600082015250565b7f53756e726973654e46543a205175616e7469747920657863656564732074686560008201527f206d6178696d756d20616d6f756e740000000000000000000000000000000000602082015250565b614fd381614728565b8114614fde57600080fd5b50565b614fea8161473a565b8114614ff557600080fd5b50565b61500181614746565b811461500c57600080fd5b50565b61501881614792565b811461502357600080fd5b50565b61502f8161479c565b811461503a57600080fd5b5056fea2646970667358221220ad2d3776e56289e2e17ff943ebc898ed3d5c0147ef8a866b7688e19ae7b81a6864736f6c6343000802003368747470733a2f2f70726f6a65637473756e726973652e6e65742f6170692f746f6b656e2f",
  "immutableReferences": {},
  "source": "// SPDX-License-Identifier: MIT\npragma solidity >=0.4.22 <0.9.0;\n\nimport \"@openzeppelin/contracts/token/ERC721/ERC721.sol\";\nimport \"@openzeppelin/contracts/token/ERC721/extensions/ERC721Enumerable.sol\";\nimport \"@openzeppelin/contracts/access/Ownable.sol\";\nimport \"@openzeppelin/contracts/security/ReentrancyGuard.sol\";\nimport \"./Counters.sol\";\n\ncontract SunriseNFT is ERC721, ERC721Enumerable, Ownable, ReentrancyGuard {\n    // Constant\n    uint256 constant pricePerUnit = 0.15 ether;\n    uint8 constant tierCount = 15;\n    uint256 constant rewardsPerTier = 0.01 ether;\n\n    // Token ID counter\n    using Counters for Counters.Counter;\n    Counters.Counter private _tokenIdCounter;\n\n    event Mint(address indexed to, uint256 indexed referrer, uint256 qty);\n    event Redeem(\n        address indexed to,\n        uint256 indexed tokenId,\n        uint256 weiAmount\n    );\n\n    // Base URI information\n    string private _prefixUri;\n\n    // Mapping of token ID to child array of token ID\n    // Max referral is 2\n    mapping(uint256 => uint256[]) private _referralTree;\n\n    // Mapping of token ID to parent token ID\n    mapping(uint256 => uint256) private _parentOfToken;\n\n    // Mapping of token ID to available rewards in wei\n    mapping(uint256 => uint256) private _availableRewards;\n\n    // Mapping of token ID to total rewards in wei\n    mapping(uint256 => uint256) private _totalRewards;\n\n    // Mapping of address to total withdrawn in wei\n    mapping(address => uint256) private _withdrawnByAddress;\n\n    // Total withdraw amount in wei\n    uint256 private _totalWithdrawn;\n\n    // Constructor\n    constructor() ERC721(\"Sunrise NFT\", \"SNFT\") {\n        // Initial counter reset\n        _tokenIdCounter.reset();\n\n        // Set default value\n        _prefixUri = \"https://projectsunrise.net/api/token/\";\n\n        // Genisis minting to kickstart\n        genesisMint();\n    }\n\n    // The following functions are overrides required by Solidity.\n\n    function _beforeTokenTransfer(\n        address from,\n        address to,\n        uint256 tokenId,\n        uint256 batchSize\n    ) internal override(ERC721, ERC721Enumerable) {\n        super._beforeTokenTransfer(from, to, tokenId, batchSize);\n    }\n\n    function supportsInterface(bytes4 interfaceId)\n        public\n        view\n        override(ERC721, ERC721Enumerable)\n        returns (bool)\n    {\n        return super.supportsInterface(interfaceId);\n    }\n\n    function _baseURI() internal view override(ERC721) returns (string memory) {\n        return _prefixUri;\n    }\n\n    // ************************ //\n    // Internal function\n    // ************************ //\n\n    function shuffle(uint256[] memory numArray) private view {\n        for (uint256 i = 0; i < numArray.length; i++) {\n            uint256 n = i +\n                (uint256(keccak256(abi.encodePacked(block.timestamp))) %\n                    (numArray.length - i));\n            uint256 temp = numArray[n];\n            numArray[n] = numArray[i];\n            numArray[i] = temp;\n        }\n    }\n\n    function assignChild(uint256[] memory referrals, uint256 newReferral)\n        private\n    {\n        uint256 maxLength = 16; // Suitable number to allow minter to double their earnings before randomly distribute to child\n        uint256[] memory newReferrals = new uint256[](\n            referrals.length * 2 > maxLength ? maxLength : referrals.length * 2\n        );\n\n        // Shuffle referrals\n        shuffle(referrals);\n\n        // Loop each referral\n        for (uint256 i = 0; i < referrals.length; i++) {\n            if (_referralTree[referrals[i]].length < 2) {\n                // Assign new referral under current referralId\n                _referralTree[referrals[i]].push(newReferral);\n                _parentOfToken[newReferral] = referrals[i];\n                return;\n            } else {\n                // Append child to new referrals list\n                newReferrals[(2 * i)] = _referralTree[referrals[i]][0];\n                newReferrals[(2 * i) + 1] = _referralTree[referrals[i]][1];\n\n                // Stop operation if max length reach\n                if (i == ((maxLength / 2) - 1)) {\n                    break;\n                }\n            }\n        }\n\n        assignChild(newReferrals, newReferral);\n    }\n\n    function genesisMint() private {\n        // Mint\n        uint256 tokenId = _tokenIdCounter.current();\n        _tokenIdCounter.increment();\n        _safeMint(_msgSender(), tokenId);\n\n        // For genesis NFT, there is no parent NFT, so the referral is assigned to self.\n        _parentOfToken[tokenId] = tokenId;\n    }\n\n    function distributeRewards(uint256 tokenId) private {\n        uint256 referral = _parentOfToken[tokenId];\n\n        for (uint8 i = 0; i < tierCount; i++) {\n            _availableRewards[referral] += rewardsPerTier;\n            _totalRewards[referral] += rewardsPerTier;\n\n            // Update next referral for the loop\n            referral = _parentOfToken[referral];\n        }\n    }\n\n    function processRedeem(uint256 tokenId) private {\n        // Check if caller is the token owner\n        require(\n            ownerOf(tokenId) == _msgSender(),\n            \"SunriseNFT: Not token owner\"\n        );\n\n        // Check if referral met requirement\n        require(\n            _referralTree[tokenId].length >= 2,\n            \"SunriseNFT: Referral usage is less than 2\"\n        );\n\n        // Calculate amount\n        uint256 amount = _availableRewards[tokenId];\n        require(amount > 0, \"SunriseNFT: Redeem amount is 0\");\n\n        // Info update\n        _availableRewards[tokenId] = 0;\n        _withdrawnByAddress[_msgSender()] += amount;\n        _totalWithdrawn += amount;\n\n        // Execute payout\n        address payable recipient = payable(_msgSender());\n        (bool success, ) = recipient.call{value: amount}(\"\");\n        require(\n            success,\n            \"SunriseNFT: Unable to send value, recipient may have reverted\"\n        );\n\n        // Event\n        emit Redeem(_msgSender(), tokenId, amount);\n    }\n\n    function processMint(uint256 referralTokenId) private {\n        // Mint\n        uint256 tokenId = _tokenIdCounter.current();\n        _tokenIdCounter.increment();\n        _safeMint(_msgSender(), tokenId);\n\n        // Referral\n        uint256[] memory referrals = new uint256[](1);\n        referrals[0] = referralTokenId;\n        assignChild(referrals, tokenId);\n\n        // Distribute rewards\n        distributeRewards(tokenId);\n    }\n\n    // ************************ //\n    // External function\n    // ************************ //\n\n    function safeMint(uint256 referralTokenId, uint8 qty)\n        public\n        payable\n        nonReentrant\n    {\n        // Check if referral is valid\n        require(_exists(referralTokenId), \"SunriseNFT: Invalid token ID\");\n\n        // Limit max qty to mint\n        require(qty <= 16, \"SunriseNFT: Quantity exceeds the maximum amount\");\n\n        // Check for payment amount\n        require(\n            msg.value >= (pricePerUnit * qty),\n            \"SunriseNFT: Payment not enough\"\n        );\n\n        for (uint8 i = 0; i < qty; i++) {\n            processMint(referralTokenId);\n        }\n\n        // Event\n        emit Mint(_msgSender(), referralTokenId, qty);\n    }\n\n    function redeem(uint256 tokenId) public nonReentrant {\n        processRedeem(tokenId);\n    }\n\n    function redeemAll(uint256[] memory tokenIds) public nonReentrant {\n        uint256 length = tokenIds.length;\n        for (uint256 i = 0; i < length; i++) {\n            processRedeem(tokenIds[i]);\n        }\n    }\n\n    function setPrefixURI(string memory uri) public onlyOwner {\n        _prefixUri = uri;\n    }\n\n    function prefixURI() public view returns (string memory) {\n        return _prefixUri;\n    }\n\n    function parentOfToken(uint256 tokenId) public view returns (uint256) {\n        return _parentOfToken[tokenId];\n    }\n\n    function availableRewards(uint256 tokenId) public view returns (uint256) {\n        return _availableRewards[tokenId];\n    }\n\n    function totalRewards(uint256 tokenId) public view returns (uint256) {\n        return _totalRewards[tokenId];\n    }\n\n    function referralTree(uint256 tokenId)\n        public\n        view\n        returns (uint256[] memory)\n    {\n        return _referralTree[tokenId];\n    }\n\n    // Total withdrawn amount of an address in this project\n    function withdrawnByAddress(address _address)\n        public\n        view\n        returns (uint256)\n    {\n        return _withdrawnByAddress[_address];\n    }\n\n    // Total withdrawn amount in this project\n    function totalWithdrawn() public view returns (uint256) {\n        return _totalWithdrawn;\n    }\n}\n",
  "sourcePath": "/Users/0xn3o/Project/Web3/project-sunrise-contract/contracts/SunriseNFT.sol",
  "compiler": {
    "name": "solc",
    "version": "0.8.2+commit.661d1103.Emscripten.clang"
  },
  "schemaVersion": "3.4.2",
  "updatedAt": "2023-01-17T18:27:05.907Z",
  "networkType": "ethereum",
  "devdoc": {
    "kind": "dev",
    "methods": {
      "approve(address,uint256)": {
        "details": "See {IERC721-approve}."
      },
      "balanceOf(address)": {
        "details": "See {IERC721-balanceOf}."
      },
      "getApproved(uint256)": {
        "details": "See {IERC721-getApproved}."
      },
      "isApprovedForAll(address,address)": {
        "details": "See {IERC721-isApprovedForAll}."
      },
      "name()": {
        "details": "See {IERC721Metadata-name}."
      },
      "owner()": {
        "details": "Returns the address of the current owner."
      },
      "ownerOf(uint256)": {
        "details": "See {IERC721-ownerOf}."
      },
      "renounceOwnership()": {
        "details": "Leaves the contract without owner. It will not be possible to call `onlyOwner` functions anymore. Can only be called by the current owner. NOTE: Renouncing ownership will leave the contract without an owner, thereby removing any functionality that is only available to the owner."
      },
      "safeTransferFrom(address,address,uint256)": {
        "details": "See {IERC721-safeTransferFrom}."
      },
      "safeTransferFrom(address,address,uint256,bytes)": {
        "details": "See {IERC721-safeTransferFrom}."
      },
      "setApprovalForAll(address,bool)": {
        "details": "See {IERC721-setApprovalForAll}."
      },
      "symbol()": {
        "details": "See {IERC721Metadata-symbol}."
      },
      "tokenByIndex(uint256)": {
        "details": "See {IERC721Enumerable-tokenByIndex}."
      },
      "tokenOfOwnerByIndex(address,uint256)": {
        "details": "See {IERC721Enumerable-tokenOfOwnerByIndex}."
      },
      "tokenURI(uint256)": {
        "details": "See {IERC721Metadata-tokenURI}."
      },
      "totalSupply()": {
        "details": "See {IERC721Enumerable-totalSupply}."
      },
      "transferFrom(address,address,uint256)": {
        "details": "See {IERC721-transferFrom}."
      },
      "transferOwnership(address)": {
        "details": "Transfers ownership of the contract to a new account (`newOwner`). Can only be called by the current owner."
      }
    },
    "version": 1
  },
  "userdoc": {
    "kind": "user",
    "methods": {},
    "version": 1
  }
}